S01700004763634170706C69636174696F6E332E7372656359
S113000010C01DC01CC01CC01AC019C018C017C025
S113001016C015C055C059C05FC061C066C06BC072
S113002072C011241FBECFE9CDBF20E0A0E6B0E02E
S113003001C01D92A936B207E1F79CD0C3C0E0CF3E
S11300401F920F920FB60F9211248F939F9380915A
S113005060008F5F8093600081110FC08091670002
S113006080936800809161008093660080916500B0
S11300708093620088B3876088BB90916000809110
S11300806800981301C0C198909160008091660047
S1130090981301C0C09890916000809162009813F9
S11300A001C0C2989F918F910F900FBE0F901F9027
S11300B018958730910580F5FC01E65FFF4F0994A0
S11300C0609367001092610004C01092670060930F
S11300D061001092650008951092670019C066359A
S11300E07105D4F4609367000BC060387105A4F403
S11300F060936700ECCF6038710574F41092670068
S11301006093610007C06038710534F46093670040
S1130110109261006093650008950F931F93CF932D
S1130120DF938C01C0E0D0E0BE01C801C2DF83E0F0
S11301308A95F1F700002196C11581E0D807A1F74F
S1130140DF91CF911F910F9108950F931F93CF9338
S1130150DF938C01CFEFD0E0BE01C801AADF83E0BA
S11301608A95F1F700002197B8F7DF91CF911F919D
S11301700F91089587E087BB81E083BF82E089BF48
S113018078941092670010926100109265001092AA
S11301906400109263008091630090916400873042
S11301A09105ACF7BADF8091630090916400CDDFD4
S11301B08091630090916400019690936400809311
S10B01C06300E9CFF894FFCFBE
S9030000FC
