:1000000010C01DC01CC01CC01AC019C018C017C029
:1000100016C015C056C05CC062C068C071C07AC04E
:1000200083C011241FBECFE9CDBF20E0A0E6B0E021
:1000300001C01D92A736B207E1F7B1D0C3C0E0CF2F
:100040001F920F920FB60F9211248F939F9380915E
:1000500060008F5F8093600081110FC08091660007
:1000600080936500809163008093640080916100BB
:100070008093620088B3876088BB90916000809114
:100080006500981301C0C198909160008091640050
:10009000981301C0C29890916000809162009813FB
:1000A00001C0C0989F918F910F900FBE0F901F902D
:1000B00018958730910508F040C0FC01E65FFF4FBE
:1000C0000994609366001092630010926100089595
:1000D0001092660060936300109261000895109280
:1000E00066001092630060936100089566357105A3
:1000F00024F5609366006093630060936100089547
:1001000060387105D4F460936600609363001092C8
:10011000610008956038710584F410926600609360
:1001200063006093610008956038710534F4609352
:100130006600109263006093610008950F931F930F
:10014000CF93DF938C01C0E0D0E0BE01C801B1DFE6
:100150008FEB9DE50197F1F700C000002196C115D6
:1001600091E0D90791F7DF91CF911F910F910895F9
:100170000F931F93CF93DF938C01CFEFD0E0BE019D
:10018000C80197DF8FEB9DE50197F1F700C00000F4
:100190002197A8F7DF91CF911F910F91089587B311
:1001A000876087BB81E083BF82E089BF7894C0E02D
:1001B000D0E0CE01C3DFCE01DBDF2196C730D10511
:0801C000C1F7F5CFF894FFCF61
:00000001FF
